:10000000008000201D070000D7060000D706000072
:10001000D7060000D7060000D70600000000000049
:10002000000000000000000000000000D7060000F3
:10003000D706000000000000D7060000D706000029
:1000400000210FF2944252F83130834204D2491C0D
:100050000629F8D30020704702EBC10040687047C2
:10006000C0F30722DFF8341280008A1800F47F7092
:1000700040EA421040F084400121016070470000D6
:100080000138FDD1704770472DE9F84FDFF8103285
:10009000DFF80452894602461968DFF8F80101408A
:1000A000A94250D002F038001028C2F3841B4FF44C
:1000B000004ADFF8F41104D1884600274FF0900B76
:1000C00033E0302804D147F230584FF4001727E0CE
:1000D000382803D1D0464FF4800721E012F0380FC2
:1000E0001BD1ABF1090012282DD20FF2D01555F813
:1000F0002B80D86F20F01C00BBF1070FA8BF40F089
:100100001000D8674FF04C774FF400201D6DEC05C0
:1001100000F1BB80401EF9D115E04FF00008002728
:10012000ABF109030C2000FB03FB12F4605FDFF866
:100130007C41DFF870617BD112F0380F1CBF02F0F8
:100140003800102801D000209DE0C2F3026000902A
:10015000DFF85C01FFF774FF30613168DFF85401AC
:10016000014041F00041316000980FF29C3151F89C
:1001700020103068384349443060491E009AB1FB72
:10018000F9F5D8200FF2A0114243881800EB0B01BB
:100190006D1E49686160616841EA0521616050F83F
:1001A0000B00216801F400010843206020682168E9
:1001B0006268636803F01F03C0F389205B1CB8FB0F
:1001C000F3F34FEA501909FB03F5C1F309016D0977
:1001D000A0EB491001FB0351584301EB9021C2F3FE
:1001E0000420401CB1FBF0F94FEA59094846FFF7DB
:1001F00027FF30612068010204D5316841F0804159
:10020000316003E0206840F4000020605046A1689F
:10021000CA0702D4401E0028F9DC30B13068074319
:1002200047F0104747F0010727E04FF0000925E0AD
:100230000846FFF705FF30612168DFF87C0021F4F4
:10024000000121603168014041F00041B9F1000F27
:10025000316008BF002506D0B8FBF9F505B16D1E69
:10026000681CB8FBF0F94846FFF7EAFE30613068D9
:1002700040EA8520074347F000473760306820F4A4
:10028000700030604846BDE8F28F00287FF448AF28
:1002900059E700000000FF700000051000E60F4065
:1002A00000E00F40B0E00F400024F40060E10F4098
:1002B00040787D0100FC0FE0FF0300EF40420F009B
:1002C00000201C0080841E0000802500999E3600BE
:1002D0000040380000093D0000803E0000004B0057
:1002E000404B4C0000204E00808D5B0000C05D0044
:1002F0000080700000127A0000007D008096980057
:10030000001BB7000080BB00C0E8CE00647ADA00B2
:100310000024F4000000FA0080A81201002D310131
:1003200000366E0140787D014000000000000000B2
:10033000000100003E000800000000000001000075
:10034000A000000002000000000100003454010081
:1003500000000000000100002B70060000000000FB
:100360000001000028000000000000000001000063
:100370002700010000000000000100002000000034
:10038000000000000001000050000000020000001A
:10039000000100001AAC0000000000000001000095
:1003A00017940900000000000001000016980500E5
:1003B0000000000000010000140000000000000028
:1003C0000001000013800800000000000001000090
:1003D000A000000008000000000100001000000064
:1003E00000000000000100002800000002000000E2
:1003F00000010000400000000400000000010000B7
:100400006000000000000000000100005D000C0022
:10041000000000000001000050000000000000008B
:10042000000100004E00020000000000000100007A
:1004300041AC010000000000000100003C00000091
:1004400000000000000100003A80090000000000E8
:10045000000100003000000000000000000100006A
:10046000280000000000000000010000270001003B
:1004700000000000000100002360060000000000F2
:1004800000010000216008000000000000010000E1
:100490001E00000000000000000100001DC004005C
:1004A00000000000000100005000000002000000F9
:1004B0000001000018000000000000000001000022
:1004C00014000000000000000001000060000000B7
:1004D00004000000000100000024F400300030009F
:1004E000005A62029100910000879303D200D2006B
:1004F00000B4C4041301130100E1F50554015401D3
:10050000000E27079501950100688909001C4E0E11
:1005100030B5CB4300F58064D50725684CBF0D434B
:100520001D40256000F58460920747BF02681143B3
:1005300001681940016030BDF0B5002400F6C475B3
:100540000126A640314211D066002F684FF0030CFF
:100550000CFA06FC27EA0C072F60C2F34117D5F806
:1005600000C007FA06F646EA0C062E60641C082C4A
:10057000E6DBCC4300F5A065D6072E684CBF0E43E2
:1005800026402E6000F2045596072E684CBF0E439D
:1005900026402E6000F5A16556072E684CBF0E431D
:1005A00026402E6000F5A36516072E684CBF0E434B
:1005B00026402E6000F23C55D2062A684CBF0A4302
:1005C00022402A60DD0700F20C5215684CBF0D4333
:1005D0002540156000F5A2629D0715684CBF0D43CC
:1005E0002540156000F214525D0715684CBF0D439D
:1005F0002540156000F21C521D0715684CBF0D43C5
:100600002540156000F244529D0515684CBF0D430E
:100610002540156000F5A86213F4407F156814BFEB
:100620000D432540156000F5A560002B07BF02684B
:1006300041EA020401680C400460F0BD00EB810057
:100640000260704738B504460D460823FFE70122D3
:10065000FFF772FF29462046BDE83840012257E7E0
:1006600038B50F490F48104C104DFFF70DFD1048DD
:10067000FFF7F6FC03212046FFF7E4FFFF220321EA
:100680002046FFF7DBFF2846FFF7FAFC0022032194
:100690002046FFF7D3FF2846FFF7F2FCEEE700BF46
:1006A000000E2707800600F10040064080841E00EF
:1006B0000C0800F04EF68851CEF20001086840F4B4
:1006C00070000860BFF34F8FBFF36F8F4FF0007063
:1006D000E1EE100A7047FEE700F00BF8002801D0A9
:1006E000AFF300800020AFF30080FFF7B9FF00F008
:1006F00002F80120704700F001B8000007463846B4
:1007000000F002F8FBE7000080B5AFF30080024A7A
:1007100011001820ABBEFBE726000200AFF30080FB
:08072000FFF7C8FFFFF7D8FF47
:040000050000071DD3
:00000001FF
